:100000000A128A11F62F00308A000408840A820737
:10001000003442346C347534653474346F346F3466
:1000200074346834203469345334203452346534A1
:1000300061346434793400344C34453444342034ED
:100040007434753472346E346534643420344F340F
:100050004634463400344C3445344434203474340B
:10006000753472346E346534643420344F344E3415
:0200700000345A
:1005EA00F00070088312031399000C1EFD2AFE2ADC
:1005FA00FA2A83160313981C032B042BFE2A0800DD
:10060A000D308312031399000D30F200AF30F10060
:10061A00B630F000F00B0F2BF10B0F2BF20B0F2B58
:10062A000000080083120313981C1C2B1D2B1F2B80
:10063A00181218168C1E222B232B292B8C1E262BC4
:10064A00272B232B1A082A2B0030080083120313A6
:10065A000614861408168812081388171A30F2002E
:10066A005E30F1006E30F000F00B392BF10B392BB4
:10067A00F20B392B0000080083160313071787179C
:10068A00181581309900181283120313981718133A
:10069A0083160313181398168312031318168B174D
:1006AA000B17831603138C160C160800F2006D2B19
:1006BA00720884000A128A1103200A128A110A1285
:1006CA008A11F5220A128A110130F1007108F20723
:1006DA00720884000A128A1103200A128A11003A47
:1006EA00031D782B792B5D2B080083120313061444
:1006FA0086140A128A1117230A128A11F300F401C6
:10070A007308F5007408F600733075067604031D45
:10071A008F2B902BA12B8312031308128812081314
:10072A00881314300A128A115B230A128A110A12D8
:10073A008A1105230A128A11663075067604031D8A
:10074A00A72BA82BB92B8312031308168812081794
:10075A00881323300A128A115B230A128A110A1299
:10076A008A1105230A128A110800831203138E01C3
:10077A008F0107150F3083120313C500C50BC32B56
:10078A00C62B831203130711871DCC2BCD2BC92B24
:10079A0010148719D12BD22BCE2B10100E08F00073
:1007AA000F08F100F201F30100300A128A118224C3
:1007BA000A128A11730883120313A7007208A6008B
:1007CA007108A5007008A4004230A3006B30A20093
:1007DA004730A100AE30A0000A128A1119260A1267
:1007EA008A11831203132308BD002208BC002108C2
:1007FA00BB002008BA000A128A1106240A128A11BA
:10080A0008000310831203133C0D3D0DBE003E0881
:10081A00C4004408031D122C132C1C2C0030BD00EC
:10082A000030BC000030BB000030BA00812C3A080E
:10083A00BE003B08BF003C08C0003D08C1001F3095
:10084A000310C10CC00CBF0CBE0CFF3E031D252CAF
:10085A003E08C2004208C300BC17FF30BA05FF3089
:10086A00BB05FF30BC050030BD059630C402C41F6D
:10087A003F2C402C5A2C4408803A973E0318462CA9
:10088A00472C482C132C01300310BD0CBC0CBB0C9C
:10089A00BA0CFF3E031D492C0130BE003E08C407B6
:1008AA00031D582C592C482C712C20304402031C4F
:1008BA005F2C602C6C2C132C0130BE000310BA0D77
:1008CA00BB0DBC0DBD0DBE0B632C0130C402440828
:1008DA00031D702C712C612C43080319752C762C7E
:1008EA00812CBA09BB09BC09BD09BA0A0319BB0A9A
:1008FA000319BC0A0319BD0A0800F800780803198D
:10090A00872C882C9C2CF31F8B2C8C2C9C2C7009EC
:10091A00FA007109FB007209FC007309FD00FA0A6A
:10092A000319FB0A0319FC0A0319FD0AA42C73080C
:10093A00FD007208FC007108FB007008FA007308D9
:10094A00720471047004031DAB2CAC2CB52C00305E
:10095A00F3000030F2000030F1000030F0003B2DCF
:10096A009630F4007408F900C72C0130F4007408BA
:10097A00F90701300310FD0CFC0CFB0CFA0CFF3ECE
:10098A00031DBF2CFE307D05031DCC2CCD2CBA2CAB
:10099A00E92C0130F4007408F9070130FA07003035
:1009AA0003180130FB07003003180130FC07003040
:1009BA0003180130FD0701300310FD0CFC0CFB0C81
:1009CA00FA0CFF3E031DE12CFF307D05031DEE2CC2
:1009DA00EF2CCE2CFB2C0130F9020130F40003106D
:1009EA00FA0DFB0DFC0DFD0DF40BF42CFC1BFE2C7B
:1009FA00FF2C052D023079020318042D052DF02C49
:100A0A007918082D092D112DFF30FA05FF30FB0545
:100A1A007F30FC05FF30FD050310F90C7908F4005E
:100A2A00F501F601F70118300310F40DF50DF60D76
:100A3A00F70DFF3E031D192D7408FA047508FB040F
:100A4A007608FC047708FD04780803192D2D2E2D4D
:100A5A00332DF31F312D322D332DFD177D08F30071
:100A6A007C08F2007B08F1007A08F000080083167F
:100A7A000313071187150815881508128812081319
:100A8A008813061086108312031310129012901006
:100A9A00203090000A128A1141230A128A11013069
:100AAA000A128A115B230A128A110A128A11052371
:100ABA000A128A110A128A117A230A128A110A124E
:100ACA008A11BA230A128A110A128A11BA230A123D
:100ADA008A11831203130819732D742D942D881DFE
:100AEA00772D782D942D0A128A112B230A128A1136
:100AFA008312031306148614081688160817881317
:100B0A000D3083120313C800AF30C700B530C600DA
:100B1A00C60B8D2DC70B8D2DC80B8D2D942D0A124A
:100B2A008A11BA230A128A1183120313081D9E2DF1
:100B3A009F2DBF2D8819A22DA32DBF2D0A128A1110
:100B4A002B230A128A118312031306148614081619
:100B5A008812081788170D3083120313C800AF30A4
:100B6A00C700B530C600C60BB82DC70BB82DC80BC9
:100B7A00B82DBF2D0A128A11BA230A128A118312BA
:100B8A0003130819C92DCA2DEA2D8819CD2DCE2D8A
:100B9A00EA2D0A128A112B230A128A1183120313CD
:100BAA000614861408128816081788170D3083123F
:100BBA000313C800AF30C700B530C600C60BE32D1B
:100BCA00C70BE32DC80BE32DEA2D0A128A11BA23AB
:100BDA000A128A1183120313081DF42DF52D5F2DB5
:100BEA00881DF82DF92D5F2D0A128A112B230A125E
:100BFA008A1183120313061486140816881208171A
:100C0A0088171A3083120313C8005E30C7006D308C
:100C1A00C600C60B0E2EC70B0E2EC80B0E2E152E97
:100C2A005F2D0A128A1100288312031327088039BC
:100C3A00A8002808B1002708A8002807A900290841
:100C4A00B800A61F292E2A2E2B2E3814380803196D
:100C5A002F2E302E402E380A031D342E352E3D2ECF
:100C6A000030A7000030A6000030A5000030A40024
:100C7A00A617A701482E0030A7000030A6000030B2
:100C8A00A5000030A40023088039A8002808B1066E
:100C9A002308A8002807A9002908B900A21F562E70
:100CAA00572E582E3914390803195C2E5D2E6D2ED5
:100CBA00390A031D612E622E6A2E0030A30000300D
:100CCA00A2000030A1000030A000A217A301752ED7
:100CDA000030A3000030A2000030A1000030A000C4
:100CEA002308220421042004031D7C2E7D2E962E27
:100CFA000030A7000030A6000030A5000030A40094
:100D0A008030A6047F30A7043108A8002808A70469
:100D1A002708A3002608A2002508A1002408A0008D
:100D2A00F52F3808031D9A2E9B2EA42E0030A300FF
:100D3A000030A2000030A1000030A000F52F3808D2
:100D4A00A800A9012908AB0039082802AA00031C37
:100D5A00AB032A087F3EB2002B080318013E003E6F
:100D6A00B3002708B0002608AF002508AE00240803
:100D7A00AD000030A7000030A6000030A50000300A
:100D8A00A4000030B7000030B6000030B5000030D3
:100D9A00B400B9011A2F39080319D42ED52EF52E0D
:100DAA000130A8000310AD0DAE0DAF0DB00DA80BAC
:100DBA00D72E0130A8000310A40DA50DA60DA70D6E
:100DCA00A80BE02EB71FEA2EEB2EEC2E24140130CE
:100DDA00A8000310B40DB50DB60DB70DA80BEE2E75
:100DEA0023083002031D032F22082F02031D032F9D
:100DFA0021082E02031D032F20082D02031C062F93
:100E0A00072F162F37172008AD022108031C210FC0
:100E1A00AE022208031C220FAF022308031C230F71
:100E2A00B0020130A8002808B9071A303902031C99
:100E3A001F2F202FD02E30082F042E042D04031923
:100E4A00272F282F472F3414472F0130A8000310CB
:100E5A00A40DA50DA60DA70DA80B2C2FB71F362F75
:100E6A00372F382F24140130A8000310B40DB50D04
:100E7A00B60DB70DA80B3A2FFF30B2070318B30A05
:100E8A00FF30B307A61F4A2F4B2F2A2FB901B71FCE
:100E9A004F2F502F6C2FFF303405A800FF30350537
:100EAA00A900FF303605AA007F303705AB002B08B2
:100EBA002A04290428040319632F642F672FB90110
:100ECA00B90A6C2F241C6A2F6B2F6C2F642F3908D8
:100EDA000319702F712FA22F0130A40700300318B5
:100EEA000130A507003003180130A60700300318A7
:100EFA000130A707271C822F832FA22F2408A800BE
:100F0A002508A9002608AA002708AB000130AC0072
:100F1A002B0DAB0CAA0CA90CA80CAC0B8D2F2B0813
:100F2A00A7002A08A6002908A5002808A40001305D
:100F3A00B2070318B30A0030B3073308803AFF0038
:100F4A0080307F02031DAB2FFF303202031CAE2F0D
:100F5A00AF2FBD2FFF3083120313B2000030B3004E
:100F6A000030A7000030A6000030A5000030A40021
:100F7A00831203133308803AFF0080307F02031D77
:100F8A00C82F013032020318CB2FCC2FD92F83124E
:100F9A000313B201B3010030A7000030A6000030ED
:100FAA00A5000030A400B101831203133208A8007F
:100FBA002808B800381CE22FE32FE52FA617E92FDF
:100FCA007F30A8002808A6053808A8000310280CB6
:100FDA00A9002908A7003108A8002808A7048D2E0F
:100FEA00080083120313C901CA01CB01CC01830192
:060FFA000A128A113C2DD1
:02400E00723FFF
:00000001FF
